:020000040800F2
:10000000983C0020CD8D00080D8F0008118F00084E
:10001000158F0008198F00081D8F000800000000D0
:10002000000000000000000000000000B34E0008C7
:10003000218F0008000000006D4E0008EB4600080C
:10004000258F0008298F00082D8F0008318F0008A8
:10005000358F0008398F00083D8F0008418F000858
:10006000458F0008498F00084D8F0008518F000808
:10007000558F0008598F00085D8F0008618F0008B8
:10008000658F0008698F00086D8F0008718F000868
:10009000758F0008798F00087D8F0008818F000818
:1000A000858F0008898F00088D8F0008918F0008C8
:1000B000958F0008CB4D0008998F00089D8F000890
:1000C000A18F0008A58F0008A98F0008AD8F000838
:1000D000B18F0008AD590008B58F0008B98F00082E
:1000E000BD8F0008C18F0008C58F000800F5E070C3
:1000F0000268914203D343689A18914202D3806800
:100100000028F5D17047DFF85807016891B94FF41E
:10011000803181604FF4805141604FF0FF31C16008
:1001200001610421DFF83C274161C2F8BC11DFF80E
:10013000381701600120704701F1080313F007032D
:1001400005D001F10803C3F1080303F007035918B0
:10015000D21A8161C26042F001034B60511828231A
:100160004B60DFF8FC160969C16170472DE9F84F53
:10017000064601F1080010F0070008BF884607D0C6
:1001800001F10800C0F1080000F0070000EB0108D1
:1001900002F1080010F0070006D002F10800C0F1DB
:1001A000080000F0070082181546A5EB0800A0EB38
:1001B000030903EB080B43F00300C8F80400AB4548
:1001C00028BF01F01BFA2879C00758BF01F016FAC2
:1001D000B9F1100F38BF01F011FAB069854209D1A9
:1001E000F0684844F060C6F818B040F00100CBF861
:1001F00004006DE1706985420BD1B0684844B0607D
:10020000C6F814B040F00101CBF8041040F80B0020
:100210005EE1686800F00301012940F0AD80C0088C
:10022000C0000190C00820283AD2D5F808A0EF6895
:100230000090BD4208BF01F0E1F9554508BF01F04B
:10024000DDF968680099C008C000B0EBC10F18BFA5
:1002500001F0D4F9009806EBC00000F128018A45AE
:1002600007D031698A45C0F08280DAF80C10A942C3
:100270007DD1574506D1009A3068012191408843CD
:10028000306076E02830874205D0306987426ED3EF
:10029000B868A8426BD1CAF80C70C7F808A068E02B
:1002A000EF68D5F818A0AF420CD0A8683169884231
:1002B00023D3C168A94204BFB968A9421DD1C76050
:1002C000B8601CE005F11400076837B905F11000AB
:1002D0000768A7B101E00846076807F114010A683A
:1002E000002A02BF07F110010A68002AF3D1316920
:1002F000884202D30021016001E001F07FF9BAF1E8
:10030000000F36D0E86906EB800000F598700168B0
:100310008D4208D10760A7B9EA6970680121914050
:100320008843706025E03069824508D3DAF8100010
:10033000A84214BFCAF81470CAF8107001E001F0A6
:100340005DF9B7B13069874211D3C7F818A02969A0
:1003500029B1814226BF39618F6101F04FF9686987
:1003600038B13169884202D37861876101E001F0D8
:1003700045F9019845198144686840084000686063
:100380004FEAD90549F00100CBF8040049F80B9079
:10039000202D23D206EBC50000F12807BA46B9F19B
:1003A000100F38BF01F02AF9306820FA05F1C907AB
:1003B00004D40121A9400843306006E0B8683169DF
:1003C00088422CBF824601F019F9C7F808B0CAF874
:1003D0000CB0CBF808A0CBF80C7079E05FEA1921DB
:1003E00008BF002023D0B1F5803F28BF1F201ED2B8
:1003F000A1F58070000C00F008008140A1F580524A
:10040000120C02F004029140A1F580431B0CC0F1D4
:100410000E0003F00203801AC01A994000EBD1309D
:10042000C11D29FA01F202F0010101EB4000CBF8F5
:100430001C000022CBF81420CBF8102006EB800122
:10044000726822FA00F3DB0701F5987107D40123E3
:1004500003FA00F010437060C1F800B01DE01F28DF
:1004600009680EBF00204008C0F1190009FA00F029
:1004700000E011464A68D208D2004A4514D0C20FA3
:1004800001EB820202F1100340001A68002AF0D149
:10049000306983421AD3C3F800B0CBF81810CBF8F8
:1004A0000CB0CBF808B013E032698868914228BFDD
:1004B00090420BD3C0F80CB0C1F808B0CBF80800DC
:1004C000CBF80C100020CBF8180001E001F096F8F2
:1004D00008F10800BDE8E68F2DE9FA4D0546DFF882
:1004E0008003006884B008B9FFF70DFEDFF87003E1
:1004F0000499806841182F31401E21EA00000499B8
:10050000814280F0A88105F5D876B16839B13268AA
:100510008018824280F09F818142C0F09C8101F06E
:1005200075F800281EBF0446D0F8008014F1010FB2
:1005300000F091813068716840448142306038BF7A
:1005400001467160A86980BB286908B1844200D265
:100550002C610020F0613461C6F8148005F1280197
:10056000BF48006868624FF0FF302862002001F148
:100570000802C9601160801C10312028D26092608E
:10058000F5D3B848854203D1A8F12802214629E0D5
:1005900055F8040CC00805EBC000A0F1080108EBF9
:1005A0000400401AA0F128021CE005F5E07108469D
:1005B00000E08068D0B1026843689A189442F8D18C
:1005C000027B120712D4AA6903689A420ED34768C5
:1005D0003B449A420AD208EB07014160E868A969E6
:1005E00008EB00022846FFF7A7FD1EE128698442B8
:1005F000084638BF2C6108EB040100E0806880B138
:1006000002688A42FAD1017B09070AD40460416872
:10061000414441602146049B284606B0BDE8F04DA8
:10062000A4E5AF6939462846FFF760FD01684068D8
:10063000401802902F3800F1080111F0070105D091
:1006400000F10801C1F1080101F00701081807F1E4
:100650001001884234BF0097009000980830019044
:1006600004F10801009800F1180A11F007014FF099
:10067000000BA8F1280005D004F10801C1F1080120
:1006800001F007010A19401AAA61E86040F001016F
:10069000516080182821416071480069E861019823
:1006A00010F0070018BF00F0A9FF00991B20486058
:1006B00005F5E071B1E80C500198A0E80C503461E8
:1006C000C6F81480C6F81CB00198B061029800E02A
:1006D0008A460722CAF804200AF104010A1D824250
:1006E0000BF1010BF4D3BBF1020FB8BF00F086FF92
:1006F0000098B84200F09980C01BC119C4084A682C
:10070000520852004A6040F001017960C051202C2B
:1007100020D205EBC40101F12806B046102838BFED
:1007200000F06CFF286820FA04F1C90704D4012105
:10073000A1400843286006E0B068296988422CBFC0
:10074000804600F05BFFB760C8F80C70C7F80880FF
:10075000FE606AE0010A08BF002223D0B1F5803FA5
:1007600028BF1F221ED2A1F58072120C02F00802CF
:100770009140A1F580531B0C03F004039940A1F5AF
:100780008044240CC2F10E0204F00204D21A121B9F
:10079000A14002EBD131CA1D20FA02F303F001029D
:1007A00002EB4102FA6100237B613B6105EB8201B0
:1007B0006B6823FA02F4E40701F5987105D401206F
:1007C0009040184368600F601CE01F2A09680EBF44
:1007D00000225208C2F1190200FA02F200E01946A2
:1007E0004B68DB08DB00834210D0D30F01EB83039F
:1007F00003F1100452002368002BF0D128698442D1
:1008000011D32760B961FF60BF600EE02A69886874
:10081000914228BF904206D3C7608F60B860F960EC
:100820000020B86101E000F0E9FEE8680499814227
:1008300011D2401AE860A969049A5218AA6140F0DE
:1008400001005060049840F00300486006B001F1D8
:100850000800BDE8F08D002006B0BDE8F08D000076
:10086000343700202C3400206859883C2DE9F04DA5
:100870000446002688465FEA1820C8F1000B08BF2E
:10088000002123D0B0F5803F28BF1F211ED2A0F544
:100890008071090C01F008018840A0F58052120C0B
:1008A00002F004029040A0F580431B0CC1F10E0140
:1008B00003F00203891AC91A984001EBD030C11D18
:1008C00028FA01F202F0010101EB400104EB810082
:1008D000D0F8300130B31F290EBF00224A08C2F100
:1008E000190208FA02F2002300E052004768FF08EC
:1008F000FF00A7EB08075F4503D25FEA070B064638
:100900000CD047694FEAD27E00EB8E00002F0069C1
:100910001CBF87423B460028E7D1184600283CD13F
:10092000002E3CD1012088404000414208436168CC
:10093000084000F0678141420840411E080B00F06A
:10094000100021FA00F2510901F0080122FA01F326
:100950009A0802F00407FB405A0802F00205081842
:1009600023FA05F23844C2F340032818181822FA73
:1009700003F1081804EB8000D0F830010DE00846C0
:100980004168C908C900A1EB080159453CBF8B4625
:10099000064601690029F2D140690028F0D1002EF5
:1009A00000F03081A068A0EB0800834580F02A8128
:1009B00020698642C0F024817068C008C00008EB3E
:1009C0000B0108EB0605884218BF00F017FEAE4287
:1009D00080F01681F768D6F818A0B7420CD0B0683E
:1009E0002169884223D3C168B14204BFB968B142CA
:1009F0001DD1C760B8601CE006F11400076837B964
:100A000006F110000768A7B101E00846076807F182
:100A100014010A68002A02BF07F110010A68002ABF
:100A2000F3D12169884202D30021016001E000F086
:100A3000E5FDBAF1000F38D0F06904EB800000F555
:100A4000987001688E4209D10760380014D1F269AC
:100A50006068012191408843606026E020698245FA
:100A600008D3DAF81000B04214BFCAF81470CAF8FC
:100A7000107001E000F0C2FDBFB12069874212D3BF
:100A8000C7F818A0306930B12169884226BF3861A3
:100A9000876100F0B3FD706938B12169884202D3E3
:100AA0007861876101E000F0A9FDBBF1100F0CD265
:100AB00008EB0B0040F00300706008EB0B0080199E
:100AC000416841F00101416096E048F00300706028
:100AD0004BF0010068604FEADB004BF805B02028BE
:100AE0001DD204EBC00101F12807216821FA00F2B0
:100AF000D207BB4605D4012202FA00F00843206069
:100B000006E0B868216988422CBF834600F076FD74
:100B1000BD60CBF80C50C5F808B0EF606CE05FEA40
:100B20001B2108BF002023D0B1F5803F28BF1F2024
:100B30001ED2A1F58070000C00F008008140A1F5E4
:100B40008052120C02F004029140A1F580431B0C6C
:100B5000C0F10E0003F00203801AC01A994000EBA6
:100B6000D130C11D2BFA01F202F0010101EB40006E
:100B7000E86100226A612A6104EB8001626822FA5E
:100B800000F3DB0701F5987106D4012303FA00F0A6
:100B9000104360600D601CE01F2809680EBF002034
:100BA0004008C0F119000BFA00F000E011464A6855
:100BB000D208D2005A4510D0C20F01EB820202F1D6
:100BC000100340001A68002AF0D12069834211D333
:100BD0001D60A961ED60AD600EE0226988689142F8
:100BE00028BF904206D3C5608D60A860E9600020F0
:100BF000A86101E000F002FD06F10800BDE8F08DFB
:100C000000F0FCFC0020BDE8F08D2DE9F84F044613
:100C10008846606841420840411E080B00F0100001
:100C200021FA00F2510901F0080122FA01F39A08B1
:100C300002F0040223FA02F56B0803F0020308181D
:100C400025FA03F61018C6F340051818284426FAAA
:100C500005F1081804EB8000D0F830014168C9089C
:100C6000C9000646A1EB080A09E008464168C90820
:100C7000C900A1EB080151453CBF8A4606460169FF
:100C80000029F2D140690028F0D120698642C0F0E5
:100C9000C4807068C00808EB0A09C00008EB060BA6
:100CA000484518BF00F0AAFC5E4580F0B680F768A2
:100CB000B569B7420CD0B0682169884223D3C168B6
:100CC000B14204BFB968B1421DD1C760B8601CE031
:100CD00006F11400076837B906F110000768A7B1DC
:100CE00001E00846076807F114010A68002A02BFFC
:100CF00007F110010A68002AF3D12169884202D362
:100D00000021016001E000F079FC002D34D0F06991
:100D100004EB800000F5987001688E4209D10760ED
:100D2000380011D1F2696068012191408843606008
:100D300022E02069854205D32869B04214BF6F6163
:100D40002F6101E000F05AFCB7B12069874211D34E
:100D5000BD61306930B12169884226BF3861876141
:100D600000F04CFC706938B12169884202D3786187
:100D7000876101E000F042FCBAF1100F09D249F09E
:100D80000300706009EB0600416841F00101416019
:100D90003FE048F0030070604AF00100CBF8040027
:100DA0004AF80BA0D4F808804FEAD805202D28BFB8
:100DB00000F024FCB8F1000F27D0D4F8149000956F
:100DC00004EBC50000F128052F46B8F1100F38BF1D
:100DD00000F014FC2068009920FA01F2D10705D434
:100DE000009A012191400843206006E0A86821692B
:100DF00088422CBF074600F001FCC5F80890C7F8F0
:100E00000C90C9F80870C9F80C50C4F808A0C4F8D0
:100E100014B006F10800BDE8F28F00F0EFFB0020EF
:100E2000BDE8F28F2DE9F04F83B00546C046C046BD
:100E3000F52DDFF8C04780F007810B2D31BF10275B
:100E400005F10B00C708FF002168FE0821FA06F033
:100E500010F0030F42D0C04300F00100861904EBEC
:100E6000C60000F12808F700D8F808506868C008E4
:100E7000C000B84218BF00F0C1FBD5F80890454546
:100E800008BF00F0BBFB4D4508BF00F0B7FB68682A
:100E9000C008C000B84218BF00F0B0FBC84505D17B
:100EA00020680121B140884320600DE02069814520
:100EB00008D3D9F80C00A84204D1C8F80890C9F8A2
:100EC0000C8001E000F09AFB47F00300686078199D
:100ED0000835416841F001014160FDE0A168B94277
:100EE00080F0C480002800F0A680012505FA06F1F4
:100EF00049004A42B0401143084041420840411E67
:100F0000080B00F0100021FA00F2510901F008036B
:100F100022FA03F18A0802F0040221FA02F67108AB
:100F200001F00208181826FA08F11018C1F340065B
:100F30004044301821FA06F202EB000804EBC80026
:100F400000F128094FEAC80AD9F808607068C0089B
:100F5000C000504518BF00F051FBD6F808B04E4510
:100F600008BF00F04BFB5E4508BF00F047FB706810
:100F7000C008C000504518BF00F040FBD94505D15E
:100F8000206805FA08F1884320600DE02069834558
:100F900008D3DBF80C00B04204D1C9F808B0CBF894
:100FA0000C9001E000F02AFB47F003007060AAEB10
:100FB0000708B819019048F00100019948600198AC
:100FC00048F80080A7684FEAD70ABAF1200F28BF77
:100FD00000F014FB47B3CDF800A004EBCA00D4F82E
:100FE000149000F1280AD346102F38BF00F006FBFA
:100FF0002068009920FA01F2D10705D4009905FA7A
:1010000001F10843206007E0DAF80800216988420E
:101010002CBF834600F0F2FACAF80890CBF80C9087
:10102000C9F808B0C9F80CA0C4F8088006F1080592
:101030000198606150E06068C0B339462046FFF710
:10104000E4FD050012D047E015F1400F28BF4FF036
:10105000FF370BD205F10B00C7086068FF0028B10D
:1010600039462046FFF702FC050035D1A068B8429A
:101070001CD3C11B626910290AD3B8186061A16032
:1010800041F001034360095047F0030050600AE05B
:101090000021A160616140F0030151608018416846
:1010A00041F00101416002F1080515E0E068874266
:1010B0000DD2C01BA169E0607A18A26140F0010066
:1010C000506001F1080547F00300486004E039462C
:1010D0002046FFF701FA0546C046C046284603B041
:1010E000BDE8F08F00B970472DE9F047A0F1080482
:1010F000C046C046DFF8FC5428698442C0F07482C0
:10110000616801F00302012A00F06E82CA084FEA0A
:10111000C208CA0708EB040936D4226811F0030F8D
:1011200000F06482A41A84429044C0F05D82696930
:101130008C4200F0D880D608202E70D2D4F80CA0B3
:10114000A768544508BF00F059FABC4208BF00F038
:1011500055FA6068C008C000B0EBC60F18BF00F0B9
:101160004DFA05EBC60000F128018F4205D0296930
:101170008F4251D3F968A1424ED1BA453DD128687A
:101180000121B140884328604C4580F02D82D9F878
:101190000400C10740F12882810700F17A81A96922
:1011A000894540F0B580E868AC614044E86040F0B3
:1011B0000101616069698C4202D100216961A96005
:1011C000E969814280F01282DFF82C04006808B9D6
:1011D000FEF799FFA969002900F00882E86829282C
:1011E00024BF2846FEF782FFE869E968884280F05C
:1011F000FD814FF0FF30E861F8E12830824506D0EC
:101200002869824508D3DAF80800A04204D1C7F85B
:101210000CA0CAF80870B7E700F0F0F9B4E7E76887
:10122000A669A7420BD0A168814222D3C868A04218
:1012300004BFB868A0421CD1CF60B9601BE004F1C4
:1012400014010F6837B904F110010F689FB101E074
:1012500011460F6807F114021368002B02BF07F153
:1012600010021368002BF3D1814202D300200860E2
:1012700001E000F0C3F9002E86D0E06905EB8000A4
:1012800000F5987001688C4209D10760380011D1CF
:10129000E2696868012191408843686074E72869C1
:1012A000864205D33069A04214BF7761376101E0FF
:1012B00000F0A4F9002F3FF467AF28698742ABD351
:1012C000BE61216929B1814226BF39618F6100F079
:1012D00095F9606900283FF457AF296988429BD38C
:1012E0007861876150E799F8040000F00300032853
:1012F0007FF44AAFC5F80880D9F8040040084000E0
:10130000C9F8040048F00100606048F804806DE10D
:101310006969894508D1A8686C614044A86040F0BB
:1013200001016160005161E1C008C0004FEAD00ACC
:10133000BAF1200F804436D2D9F80C70D9F8086081
:10134000B94508BF00F05AF9B14508BF00F056F999
:10135000D9F80400C008C000B0EBCA0F18BF00F0F5
:101360004DF905EBCA0000F128018E4206D029692B
:101370008E42C0F08180F16849457DD1B74206D1E7
:101380002868012101FA0AF18843286076E02830B4
:10139000874205D0286987426ED3B86848456BD12B
:1013A000F760BE606AE0D9F80C70D9F818604F4554
:1013B0000DD0D9F808002969884223D3C16849456E
:1013C00004BFB96849451DD1C760B8601CE009F188
:1013D0001400076837B909F110000768A7B101E0E8
:1013E0000846076807F114010A68002A02BF07F1DE
:1013F00010010A68002AF3D12969884202D300212A
:10140000016001E000F0FAF8002E37D0D9F81C0096
:1014100005EB800000F59870016889450AD10760E6
:10142000380012D1D9F81C20686801219140884306
:10143000686023E02869864205D33069484514BFB7
:101440007761376101E000F0D9F8BFB128698742C0
:1014500012D3BE61D9F8101029B1814226BF39617B
:101460008F6100F0CBF8D9F8140038B129698842AF
:1014700002D37861876101E000F0C0F848F0010014
:10148000606048F80480686984420BD1C5F8088020
:10149000ACE040084000C9F8040048F0010060607A
:1014A00048F804804FEAD807202F22D205EBC70066
:1014B00000F128094E46B8F1100F38BF00F09EF831
:1014C000286820FA07F1C90704D40121B94008436C
:1014D000286007E0D9F80800296988422CBF064631
:1014E00000F08CF8C9F80840F460A660C4F80C90CD
:1014F0007CE05FEA182008BF002123D0B0F5803FD0
:1015000028BF1F211ED2A0F58071090C01F008012F
:101510008840A0F58052120C02F004029040A0F521
:1015200080431B0CC1F10E0103F00203891AC91A92
:10153000984001EBD030C11D28FA01F202F0010100
:1015400001EB4001002262612261E16105EB810053
:101550006A6822FA01F3DB0700F5987006D40123CC
:1015600003FA01F11143696004601CE01F2900685F
:101570000EBF00214908C1F1190108FA01F100E08C
:1015800010464268D208D200424510D0CA0F00EB84
:10159000820202F1100349001A68002AF0D1296979
:1015A0008B4211D31C60A061E460A4600EE02A6944
:1015B0008168904228BF914206D3CC608460E0608D
:1015C000A1600020A06101E000F018F8286A401E28
:1015D00028620BD1D5F8C80100E080680028FCD152
:1015E0004FF0FF30286201E000F008F8C046C04626
:1015F000BDE8F0872C34002034370020012000F0B3
:101600001BB80268531C03601170704707490868D3
:1016100008B1002070470648C008C00008600549AE
:10162000C908C900091A0160704700BF903800203E
:101630009F3C0020983C002080B5C046C046024A2E
:1016400011001820ABBEFBE7260002002DE9F04F89
:1016500080460FF21C60A5B017461D46D0E9002356
:10166000CDE91223002004910D900DF1500A6FF086
:10167000004900E0E7190020ADF8020012AB4FF07E
:10168000FF3239460DF1020001F08BF80446012CBF
:1016900004DA3878441EA441E443E40FBDF80200A4
:1016A00025280CBFA4F1010BA346BBF1010F0EDBF3
:1016B0003E4616F8011B0498C0470028049000F02D
:1016C000D2820D98401CBBF1010B0D90F1D1BDF8F9
:1016D0000200252807D100200790089009900A9061
:1016E0000B900C9005E00028C4D10D98BDE240F0AD
:1016F000010017F8011F2029F9D023290DD02B292B
:1017000004D02D2906D030290AD00CE040F0020088
:1017100080B2EEE740F00400FAE740F00800F7E797
:1017200040F01000F4E72A290ED12968296051F809
:10173000042B2960002A0F9204D5514240F0040086
:101740000F9180B27F1C11E000210F9109E00F99E9
:10175000494505D001EB810302EB430130390F917C
:101760007F1C3A78A2F130010A29F0D339782E296A
:1017700003D04FF0FF310E911DE017F8011F2A2909
:1017800007D1296829607F1C51F8042B29600E922B
:1017900011E000210E9109E00E99494505D001EBB9
:1017A000810302EB430130390E917F1C3A78A2F19C
:1017B00030010A29F0D3ADF840000FF2BC4039786F
:1017C00001F000F808B117F8010B8DF842009DF800
:1017D0004200682802BF39786829622005D06C2849
:1017E00004BF38786C2803D171208DF842007F1C2B
:1017F00014A8069017F8014BB4F125002AD01C3824
:1018000000F0CB80001F022840F2C780133800F0A0
:10181000EC80093800F0C180801E00F05381401E2A
:1018200000F02C81401E022840F2B780001F00F01B
:101830002581401F00F08280401E00F0D680401EAF
:101840002CD0C01E0BD0801E00F0CF80C01E00F038
:10185000CC805AE125208DF8500001205EE19DF8F2
:1018600042006C282868286014D050F8046B286067
:1018700005960E9C002C04D5304600F0AFFF0446C0
:1018800006E022460021304600F0C4FF00B1841B70
:10189000089444E150F8042B28602FE1296829605E
:1018A0003C2451F8040B29600021CDE9020114A861
:1018B0000590DDE90201069E11B908B90E9AB2B190
:1018C0000206120FA0EB02123032D2B2631E3A2A85
:1018D000A8BF2732000940EA017009099A5508BFDC
:1018E00000281C4603D0059AA3199A42E8D3A019F0
:1018F0000590C4F13C010E980891814209DA401A22
:101900000A904FF6EF71BDF840000840ADF8400076
:1019100005E1002840F103819DF8400000F014002B
:10192000102840F0FC800F98079A801A0A9A801AB3
:10193000441A012CC0F2F3800A94F0E09DF84200B2
:1019400062281AD0682806D06A280CD06C281CD0CF
:10195000712808D019E02868286050F8041B286016
:101960000D980880DBE02868286050F8042B286078
:101970000D98C117C2E90001D1E02868286050F82D
:10198000041B28600D980870C9E02868286050F88A
:10199000041B28600D980860C1E02868C01D20F075
:1019A00007022A60D2E9000108322A60CDE902016B
:1019B000002902D507982D210AE0BDF840008107D3
:1019C00002D507982B2103E0C00705D507982021F1
:1019D00000F80A10401C079014A8079908180590F1
:1019E000214602A800F090FB99E09DF842006C2887
:1019F0000DD0712818BF6A2809D12868C01D20F0B1
:101A000007022A60D2E9000108322A6005E029684D
:101A1000296051F8040B29600021CDE902019DF8ED
:101A20004200682803D1DDE9020180B20BE06228A0
:101A300003D1DDE90201C0B205E0742818BF7A289D
:101A400004D1DDE902010021CDE902019DF8400049
:101A500000072ED5DDE90201002908BF002828D0A3
:101A600044F02000782824D10798302100F80A108B
:101A7000401C411C079100F80A401AE09DF8420002
:101A8000294600F0FDF8CDE90201002902DA0798A5
:101A90002D210AE0BDF84000810702D507982B21CF
:101AA00003E0C00705D50798202100F80A10401C64
:101AB000079014A8079908180590214602A800F07D
:101AC0009FFA2CE09DF842006C2809D00120079075
:101AD0002868286050F8041B28608DF850101EE01C
:101AE0002868286001AA50F8041B2860ADF804108B
:101AF0000020ADF806004FF0FF300E9002A94046DE
:101B000000F0F5F800280AD5ADE025208DF850004A
:101B1000012007901CB18AF80140022007900F981D
:101B20000799401A0A99401A0899401A0B99401AC5
:101B30000999401A0C99441A9DF84000400710D4A6
:101B400020208DF80000002609E0012300AA02A948
:101B5000404600F001FE002840F08580761CA64239
:101B6000F3DB079E0DF1500B0AE01BF8011B0498F4
:101B7000C0470028049076D00D98401C0D90761E2A
:101B8000002EF2D130208DF800004FF0000B0A9E9D
:101B900009E0012300AA02A9404600F0DDFD00286B
:101BA00061D10BF1010BB345F3DB089EDDF814B0F6
:101BB0000AE01BF8011B0498C0470028049052D08B
:101BC0000D98401C0D90761E002EF2D130208DF81D
:101BD00000004FF0000B0B9E09E0012300AA02A9B0
:101BE000404600F0B9FD00283DD10BF1010BB34593
:101BF000F3DB05980899099E01EB000B09E01BF83F
:101C0000011B0498C047049068B30D98401C0D90C8
:101C1000761E002EF3D130208DF800004FF0000B1F
:101C20000C9E08E0012300AA02A9404600F094FDA2
:101C3000C8B90BF1010BB345F4DB9DF84000400738
:101C40007FF519AD20208DF80000002600E0761CFD
:101C5000A642BFF610AD012300AA02A9404600F03B
:101C60007BFD0028F3D04FF0FF3025B0BDE8F08FAA
:101C70000000000000000000686A6C747A4C0000EC
:101C8000622826D068281DD06A2808D06C2827D062
:101C9000712804D0742823D07A280CD020E008685A
:101CA000C01D20F007000860D0E90023083008605C
:101CB0001946104670470A680A6052F8040B0A6019
:101CC000002170470A680A6052F8040B0A6000B2EB
:101CD0000BE00A680A6052F8040B0A6040B204E0A4
:101CE0000A680A6052F8040B0A60C11770472DE9B0
:101CF000F44F0D4694B0D5F830B0BBF1000F8046DC
:101D000048BF6FF0004B00F0B1FD696B40180190C7
:101D10000FF67420D0E90023CDE9022395F83800AE
:101D2000400702D40198412806D240200DF1100A44
:101D300001904FF0000909E0FFF774F85FEA000A2C
:101D4000F7D14FF0FF3058E1ABEB040BBBF1010FC3
:101D5000C0F2CD801498018802AA0DF1010000F0B4
:101D60008AFD0028044600F1D5801498008810B937
:101D7000641E00F1CF80A345C0F2B9806869019963
:101D80002218914280F0A180296AC5F8349040421F
:101D9000401AA969401A696A401AE969401AA96A91
:101DA000A0EB010995F83800400710D420208DF8E9
:101DB0000000002609E0012300AA2946404600F061
:101DC000CBFC002840F0A680761C4E45F3DB6E6904
:101DD00057460BE017F8011BA868C0470028A86009
:101DE00000F09880E86A401CE862761E002EF1D16F
:101DF00030208DF8000000272E6A09E0012300AA98
:101E00002946404600F0A8FC002840F083807F1C53
:101E1000B742F3DBAE69EF680AE017F8011BA86868
:101E2000C0470028A86075D0E86A401CE862761EAA
:101E3000002EF2D130208DF8000000276E6A08E0F5
:101E4000012300AA2946404600F086FC002861D103
:101E50007F1CB742F4DBE868A969EE690F180AE055
:101E600017F8011BA868C0470028A86052D0E86A8C
:101E7000401CE862761E002EF2D130208DF8000062
:101E80000027AE6A08E0012300AA2946404600F078
:101E900063FC00283ED17F1CB742F4DB95F8380084
:101EA00040070ED520208DF80000002607E0012312
:101EB00000AA2946404600F04FFC58BB761C4E4510
:101EC000F5DB4FF00009C5F81490224668690DF162
:101ED0000101504400F0DCFC686920186861149826
:101EE000801C1490801E008800287FF42DAF686B42
:101EF0006969401A296A401AA969401A696A401A30
:101F0000E969401AA96A471A95F83800400710D4C1
:101F100000240CE04FF0FF3968E0A8682021C0479A
:101F20000028A860F6D0E86A401CE862641CBC4245
:101F3000F3DB6B6952462946404600F00DFC002851
:101F4000E8D12C6A002609E0A8683021C0470028A3
:101F5000A860DFD0E86A401CE862761CA642F3DB8A
:101F6000AB69EA682946404600F0F6FB0028D1D16B
:101F70006C6A002609E0A8683021C0470028A860E4
:101F8000C8D0E86A401CE862761CA642F3DBE86829
:101F9000A969EB690A182946404600F0DDFB0028D4
:101FA000B8D1AC6A002609E0A8683021C0470028F3
:101FB000A860AFD0E86A401CE862761CA642F3DB5A
:101FC00095F8380040070DD5002409E0A8682021C5
:101FD000C0470028A8609DD0E86A401CE862641CE5
:101FE000BC42F3DBC5F81490C5F8349004A88245D0
:101FF0001CBF5046FFF776F8484615B0BDE8F08F95
:102000002DE9FA4E05460A462F696F2A08BF0824B3
:1020100005D041F02000782814BF0A2410243C2663
:10202000D5E90001642A18BF692A81468A4605D18C
:10203000002903DAD9F100096AEB4A0ABAF1000F64
:1020400008BFB9F1000F0CD1286B50B9082C36D15C
:1020500095F83800000732D530203B2687F83B0042
:102060002DE0E31748465146224600F04DFCA4FB04
:102070000023A9EB02023032D2B2A6F1010B3A2AB8
:102080005E4603DB9DF80030513B9A1881465FEABB
:10209000010A0BF8072008BFB9F1000F03D0E86868
:1020A000F1198842DDD3082C09D195F838000007D2
:1020B00005D5F05D302802D0761E3020F055C6F1EF
:1020C0003C00A861F119E960296B884208DA081A16
:1020D00028624FF6EF71288F08402887BDE8F38EFD
:1020E00000290ED595F8381001F01401102908D1F7
:1020F000696B6A69891A2A6A891A0E1A012EA8BFA1
:102100002E62BDE8F38E00002DE9F24F04468EB03A
:10211000D4E90001CDE9020104AF9DF8380040F098
:10212000200BBBF1610F0AD0206B002848BF0620AE
:1021300004D408BFBBF1670F01D10120206361689F
:10214000C1F30A5040F2FF7290421CD1080304BF51
:102150002068002809D10320A0619DF8380061386B
:102160001A2836D30FF2346108E00320A0619DF8ED
:10217000380061381A2829D30FF21861E068032269
:1021800000F086FBBEE1012816DA204600F033FCA1
:10219000012811DB00250020BBF1610F20D1E1688F
:1021A000302201F8012B4A1CE2609DF83820612A98
:1021B0000CBF782258220FE0626840F2FE3161F3D2
:1021C0001E52451A62604FF0FF30E5E70FF2C05132
:1021D000D4E70FF2C451D1E70A706169891C6161CB
:1021E00010B90026002584E1BBF1610F40F0978013
:1021F000206BD4E900AB00284CBF2126461CDDE94A
:1022000002010022002300F017FC36B23ABF8BF027
:102210000040CDE902A0CDE902AB06F101082D1F77
:102220008DF810200DF1110700E0C71DB8F1010F66
:1022300033DBDDE902010022002300F015FC2CD283
:102240001C2102A800F028FCDDE9020100F0ACFC32
:10225000A8F10708B8F1010F814609DB00F0D0FCB6
:1022600002460B46DDE9020100F0E2FCCDE9020185
:10227000F81D072105E009F00F0200F8012D4FEAD3
:102280002919B9F1010F01DB491EF4D5491E5CBFC4
:10229000002200F8012DF9D5C7E70DF11100391A18
:1022A000B142B8BF0E4636B230000DF111072FD43F
:1022B000884206DA04A9411849780829A8BF0F21E5
:1022C00000DA002104AA821800E0761E12F8013913
:1022D000401E8B42F9D00F2904D104A941184A7835
:1022E000521C4A70002802D504AF761C2D1D36B250
:1022F000701E0DD4C1190A783032D2B23A2A03DBEB
:102300009DF838303A3B9A18401E01F80129F2D561
:10231000206B002840F1ED80701E2063E9E0DDE9CC
:1023200002010022002300F087FB3CBF81F0004146
:10233000CDE902012DB247F2975068434B49DFF8CF
:10234000309190FBF1F52DB2C5F1070ABAF1010FFA
:1023500090461CDBDDE902675FEACA7007D542469A
:102360004B463046394600F023FD06460F464046B0
:10237000494642464B464FEA6A0A00F019FDBAF157
:10238000000F80468946E7D1CDE9026724E0CAF113
:10239000000A0026374F14E05FEACA7007D54246AC
:1023A0004B463046394600F003FD06460F46404690
:1023B000494642464B4600F0FBFC4FEA6A0A80461B
:1023C0008946BAF1000FE7D1DDE9020132463B460A
:1023D00000F0C0FDCDE90201BBF1660F216BDFF813
:1023E00098900CBF05F10A0006204618142EA8BFCD
:1023F000132630208DF810000DF11107012E3DDB62
:10240000DDE9020100F0E6FB07F1080104220A23DE
:10241000B0FBF3F303EB8307A0EB4700303001F888
:10242000010C0A20B3FBF0F000EB8007A3EB47039D
:102430003033521E01F8023DE9D1083E012E01F170
:102440000807DBDBDDE9020100F0C4FB00F0E2FB82
:1024500002460B46DDE9020100F0EAFB00224B4692
:1024600000F0A6FCCDE90201CAE700BFA08601008A
:10247000000024400000F03F84D797410DF1110087
:10248000381A0DF1110702E0401E6D1E7F1C3978CD
:102490003029F9D0BBF1660F02D12DB2691C04E0DE
:1024A000BBF1650F0CBF01210021226B8E1836B2E3
:1024B000B042B8BF064636B231001AD4814204DABF
:1024C000C85D3528A8BF392000DA3020CA19521E4D
:1024D00000E0761E12F80139491E8342F9D03928EE
:1024E00002D1C85D401CC855002902D57F1E761C4C
:1024F0006D1C2DB29DF83810009533B23A46204637
:1025000000F003F80FB0BDE8F08F2DE9F04786B07A
:1025100006468A4690461D4600F065FE012D406A3B
:10252000376B90F8009002DA01250FF274284AF018
:102530002000BDF93840662808BF641C12D0672807
:1025400076D114F1040F79DBBC4277DA96F83800C3
:10255000641C000702D4BD42B8BF2F4624B23F1B03
:1025600048BF002724B2F068B169012C21DA4A1C67
:1025700030230B54012F03DA96F83810090702D5DF
:1025800002F80090521CE742B8BF7C4224B2E7191F
:102590006142AF42B2617162B8BF3D46B3692DB2CC
:1025A000F5612A464146181800F072F9781BB062AE
:1025B000BBE00818A54216DA2A46414600F068F941
:1025C000B1696918601B012FB161706203DA96F876
:1025D0003800000705D5F06801F80090F069401C4C
:1025E000F061B762A1E02246414600F051F9B069BE
:1025F00020182D1B012F03DA96F83810090703D590
:10260000F16800F80190401CB0612DB2AF42B8BF34
:102610003D46F068B3692DB22A4604EB080118184C
:1026200000F036F9B0692818B061781B70627CE060
:10263000BAF1610F14D14FF0700A16E0BD4204DA0E
:1026400096F83810090758BF2F467F1E48BF00274D
:10265000BAF1670F14BF4FF0450A4FF0650A04E066
:10266000BAF1410F08BF4FF0500AB169F06818F88D
:10267000013B0B544A1C012F05DA96F83810090764
:1026800058BFB26115D502F80090531C012FB361F9
:102690000FDB6D1E2DB2AF42B8BF3D462DB22A46AC
:1026A0004146181800F0F4F8B0692818B061781B9A
:1026B0007062F068B1690918200081F800A004D4A4
:1026C0002B20487001F1020804E02D224A7001F12C
:1026D00002086442002502AF08E00A2200A800F0C8
:1026E0009BFD019807F8010B6D1C009C21B201298C
:1026F000F3DA022D06DA4AF02000652804BF302004
:1027000008F8010B4DB9302008F8010B07E06D1EE9
:1027100002A8285C303008F8010B012DF7DAF068C8
:10272000B1690818A8EB0000F06196F8380000F0D5
:10273000140010280DD17069B1690818716A081861
:10274000F1690818B16A0818716B8842BCBF081A91
:10275000306206B0BDE8F087F8B504460D4616466F
:102760001F46002004E0E86A401CE8627F1E00204B
:1027700047B116F8011BA868A0470028A860F2D14D
:102780004FF0FF30F2BD000000000000000000002C
:102790006E616E004E414E00696E6600494E460005
:1027A0003000F8B504460D4616461F4600F045FDBC
:1027B0003B4632462946204601B0BDE8F04000F0D5
:1027C00052BD00000278C9B28A421AB11CBF10F88B
:1027D000012FF9E718BF00207047000000F1010346
:1027E000810704D010F8011B89B18107FAD1026872
:1027F000B2F10131914311F0803F04BF50F8042F32
:10280000F6E710F8011B11B110F8011BFBE7C01A25
:1028100070470000C9B2830706D0521E22D310F8B9
:10282000013B9942F7D11FE0083A13D302F10402A9
:1028300041EA012141EA014150F8043B121F21BF46
:102840004B40A3F1013C2CEA030C1CF0803FF3D079
:10285000C9B2001F083210F8013B521E28BF91EA8E
:10286000030FF8D818BF0120401E704780B500F054
:10287000E4FC012002BD70B504460D46164600F08A
:10288000DCFC324629462046BDE8704000F0DEBC44
:1028900062B38B0708D0521E11F8013B00F8013BD0
:1028A00000F024808B07F6D1830740F0208000BF22
:1028B000103A07D330B4B1E83810103AA0E8381015
:1028C000F9D230BC530724BFB1E80810A0E80810C3
:1028D00044BF51F8043B40F8043BD20724BF31F811
:1028E000022B20F8022B44BF0B7803707047083A84
:1028F00007D3B1E80810083A40F8043B40F804CB8D
:10290000F7D25307E4E700001B4213D1094236D146
:102910002AB18446B0FBF2F002FB10C2704700F00F
:10292000C5BCFCD30022002370470B00020000212D
:1029300000207047904271EB030CF6D370B5B1FAEA
:1029400081F4B3FA83F52C1BA340C4F1200532FABD
:1029500005F63343A2405FF00046E64002E05B0824
:102960005FEA3202841A71EB030524BF2046294630
:102970007641F4D302000B003000002170BD012A23
:10298000CFD970B5140C20D0B1FA81F4B2FA82F527
:10299000C4F120046419B4F12006D6D3B2405FF02C
:1029A0000044F440002502E052085FEA3303C61AEF
:1029B00071EB020E24BF3046714664416D41F3D382
:1029C00002000B002000290070BD0C46B1FBF2F1A3
:1029D00002FB11452D0445EA1045B5FBF2F402FB5C
:1029E000145580B240EA0545B5FBF2F002FB1052E7
:1029F00040EA044070BD30B4436803F00042012156
:102A00001B031B0B436004BF0368002B08D10DE0C0
:102A10000368DD0F45EA440444605B000360491E1F
:102A20004468E302F4D523031B0B436043681A4355
:102A30004260084630BC70474FF4001C1CEB410F4D
:102A400094BF1CEB430F09E041EA030C50EA4C0C25
:102A500052EA0C0C03D2994208BF9042704714BF4F
:102A60008B428242704700004FF4001C1CEB410F68
:102A700094BF1CEB430F09E041EA030C50EA4C0CF5
:102A800052EA0C0C03D28B4208BF8242704714BF3B
:102A9000994290427047000070B504460D46606848
:102AA000C0F30A5040F2FF71884207D1606800030A
:102AB00004BF2068002817D0022070BD20B920462E
:102AC000FFF799FF012868DA012D0FDB40F2FF7153
:102AD000091A8D420AD36068002847BF0020304998
:102AE00000203049C4E90001012070BD4142A942E3
:102AF000616806DA6FF31E51401941EA00506060C8
:102B000042E0401E63684519012205F1350062F379
:102B10001F53352801F00041636003D3616000203A
:102B2000206070BD002215F11F0F04DA22682360B7
:102B3000002020356060684214D0521E2568924102
:102B4000C0F12003D2439D4045EAD272256825FAA0
:102B500000F6656805FA03F333432360636823FADC
:102B600000F5656060680843B2F1004F606003D80B
:102B70000DD12078C0070AD52068401C206020684D
:102B800028B96068401C60604FF0FF3070BD60681D
:102B9000884204BF20680028F6D1002070BD00BF25
:102BA0000000F0FF0000F07FF446400D40EAC12035
:102BB000490006D200F014F8004248BF6FF0004010
:102BC000604700F00DF84FF0004188428CBF084686
:102BD00040426047400D40EAC120490080F00D802E
:102BE00040F00040490DA1F58061491C05D4D1F1A8
:102BF0001F0154BFC840C01770474FF00000704716
:102C0000010040F10980F446404200F005F851F01F
:102C100000416047010000BF09D0B0FA80F1884050
:102C2000C91CC1F58461090501EBD021400570473D
:102C3000F0B44FF0004591EA030F44BF6B4000F041
:102C400037BB00BF841A71EB030604D26E40001B31
:102C5000B141121973414FF4001C1CEB410F34BFFA
:102C60007CEB430684E00C0DA4EB1356362E7DDC82
:102C7000012E43DC45EAC32343EA525312BFD2027A
:102C800092025B08240545EAC12141EA5051D2EB8A
:102C9000C020994125D407D1B0FA80F610FA06F188
:102CA00064D00020203608E0B1FA81F6B140C6F1C8
:102CB000200220FA02F21143B0404FEAF474B4EB60
:102CC000465434F001064FEA74040AD8D6F50016CB
:102CD000760D04F00044F04061FA06F25040F140F5
:102CE0004840C00A40EA415021F0004128BF5FEA55
:102CF000500550F1000044EBD12137E045EAC323F1
:102D0000DB0A45EAC121C90AB6F120050EDD42EA17
:102D10000242120CC5F1200603FA06F6EB4042EA25
:102D200006056D42984161F100010DE062FA06F579
:102D3000F240554063FA06FC82EA0C02F3405A4026
:102D40006D42904161EB030111F4801F05D1641EB7
:102D5000620502D06D004041494121F480114308D1
:102D600075F1004350F1000041EB0451F0BC704795
:102D70001CEB410F15D223F0004352EA43060BD05F
:102D80004FEA4C0CBCEB410F04D80C0D661E342EE0
:102D9000B7DDEBE7801A994150EA410608BF0021F0
:102DA000E4E708BF1CEB430F28BF6FF00001DDE72D
:102DB000B0B581EA030C0CF0004C40F2FF7515EA47
:102DC00011541DBF15EA1357AC42AF4239E0E41964
:102DD00023EA455343F48013C90241F0004141EA1C
:102DE000505EC7021100A7FB020200284FF000004E
:102DF000EEFB01204FF00001E3FB072118BF42F07A
:102E00000102401800214941E3FB0E01A4F5806452
:102E10000F0302D252004041494154F101046CDDDC
:102E2000470872F1004250F1000051EB0451A1F546
:102E300080115CBF41EA0C01B0BD4CEA0551002095
:102E4000B0BD05EA1357AC4214BFAF4241E050EAAF
:102E5000410E1CBF52EA430E02E061460020B0BDA5
:102E600024423C441BD15FEA070EF6D0090302BF9F
:102E700001460020AEF1140EB1FA81F7AEEB070463
:102E800001FA07FE0C37C7F1200100FA07F7C84026
:102E90004EEA000E23EA455343F48013A2E733F0D1
:102EA0000043B3FA83F704BFB2FA82FE77440B3FC4
:102EB000E41BB7F1200E2FBF02FA0EF3BB40C7F19F
:102EC000200E22FA0EFE38BF43EA0E03BA40641CFD
:102ED00082E750EA410E14BF52EA430E6FF0000140
:102EE0004FF4001717EB430F8ABF194617EB410F3A
:102EF000B5E74CEA05510020B0BDD4F10104B4F1AE
:102F000020070FDAC4F12007520828BF42F001025F
:102F100010FA07F501FA07F7E1BF2A43E04038430A
:102F2000E1400FE0352C98DCC7F1200452EA400262
:102F300020FA07F218BF42F0010231FA07F0A1406F
:102F40000A43002172F1004250F1000051EB0C01E4
:102F5000B0BD00002DE9F04140F2FF7581EA030C9D
:102F60000CF0004C15EA11541DBF15EA1357AC4282
:102F7000AF42E9E0BC41C1F31301C3F31303801A6C
:102F8000994143F4801304D2641E400049418018E3
:102F90005941C90241EA5051B1FBF3F603FB161146
:102FA000A2FB0675D7EBC020A94102D2761E80187D
:102FB0005941C90241EA5051B1FBF3FE03FB1E1116
:102FC000A2FB0E75D7EBC020A94103D2AEF1010ED2
:102FD00080185941890241EA9051760546EA8E2EC1
:102FE000B1FBF3F603FB1611A2FB0675D7EB8020AD
:102FF000A94102D2761E80185941C90241EA5051B6
:103000004EEA060EB1FBF3F603FB1611A2FB0675A2
:10301000D7EBC020A94102D2761E80185941C902BF
:1030200041EA5051B1FBF3F703FB1711A2FB07353F
:10303000D3EBC020A94167F100070CBF004247F065
:10304000010766F3D5274FEA1E31B80814F58064EE
:1030500014DDBD0775F1004250EB0E5051EB0451E9
:1030600011F5801F5CBF41EA0C01BDE8F0814CF016
:103070007F6141F0E0410020BDE8F081BD076D08AF
:1030800040EA0E5041F48011D4F10104B4F120065D
:103090000ADAC4F120060200E04001FA06F3E1403A
:1030A0001843B24015430EE0342C14DCC6F1200462
:1030B00045EA40056D0820FA06F2154321FA06F0AC
:1030C000A1400D43002175F1004250F1000051EB89
:1030D0000C01BDE8F08100205FEA0C01BDE8F08141
:1030E000CFB992185B41B3FA83F704BFB2FA82F604
:1030F000BF190B3FB7F120062FBF02FA06F3BB4002
:10310000C7F1200622FA06F638BF3343BA401CB195
:10311000E419641E2FE77F4231F00041B1FA81F4D7
:1031200004BFB0FA80F6A4190B3CB4F120062FBFFF
:1031300000FA06F1A140C4F1200620FA06F638BFD5
:103140003143A0403C1B16E7AC421ABF05EA1357B7
:10315000AF4214E050EA41061CBF52EA4306BFE703
:1031600050EA4107304661461CBF41EA0551BDE8BF
:10317000F08152EA430C08BFC143BDE8F081002052
:103180004FF4001616EB410F98BF16EB430F08BF24
:1031900016EB410F24BFC14305E016EB430F0CBFF4
:1031A00061464CEA0551BDE8F081000080B5134846
:1031B00000F0E8F80FF24C020FF2440101604262A5
:1031C00041600FF24402826381600FF24402C160E9
:1031D0000161416181618162C16201634163C263D6
:1031E0000164416401BD10B5044800F0CBF8044609
:1031F000206808B9FFF7DAFF204610BD0000002064
:10320000000000002E00000066616C736500000085
:10321000747275650000000091FBF2F303FB12115C
:10322000C0E900317047000010B50446DFF818000F
:1032300000F0A8F850F8240010BD80B5DFF80800B1
:1032400000F0A0F8806902BD9000002030B430B9D1
:103250000FF24800D0E90045C2E900451BE00170CB
:10326000012030BC704730B431B90FF23800D0E9DA
:103270000045C3E900450EE01AB930BC6FF001000B
:10328000704708B10A7802800978481E804130BC36
:10329000C043C00F7047002030BC704700000000E2
:1032A0000000000000000000000000007047000067
:1032B000841A71EB030603D2001BB141121973414A
:1032C0004FF4001C1CEB410F34BF7CEB430443E084
:1032D0000C0DA4EB1356352E50DC45EAC323DB0A54
:1032E00045EAC121C912B6F120050DDD63FA05F6E4
:1032F000EB4086EA0305124218BF45F00105C018ED
:1033000051F100010CD213E062FA06F5F24055408B
:10331000F3415A40B340F3405A408018594107D313
:1033200049085FEA30005FEA350528BF45F001052E
:1033300001F58011420875F1004250F1000041EBA7
:103340000451F0BC4FF4001C1CEB410F38BF704718
:103350000020090D090570471CEB410F10D252EAFD
:1033600043060BD0BCEB410F05D80C0DAB43661EDA
:10337000342EB5DD02E0AB4380185941F0BC7047F4
:10338000F0BC7047704700002DE9F04F85B0040095
:103390000D0016001F00DDF83880DDF83C90B6B255
:1033A000B00000F035FF8346BBF1000F0DD05C206C
:1033B00000F02EFF8246BAF1000F02D0CAF830B0FA
:1033C00005E0584600F0ADFF01E000208246BAF16A
:1033D000000F14D000200390CDF808A0CDF8049081
:1033E000CDF800803B00B6B232002900200000F08A
:1033F0000DF8504600F07BF80120049002E05FF0E9
:10340000FF300490049805B0BDE8F08F2DE9F94F26
:1034100083B00C0015000E9E0F9FDDF84080A800C1
:103420000190A5200090D8F830B0009A0199584634
:1034300001F02AF8D8F8300010EB8500001F814613
:103440005FEAD9095FEAC90919F00700002807D027
:1034500040F22B32DFF80814DFF8D00601F048F80C
:1034600000208246BAF10A0F0CD21AF804001AEBB7
:10347000080181F834001AF80400002802D01AF17B
:10348000010AEFE7002088F83D00202E01D31F201D
:103490000600C8F82C60C8F848600020C8F84C0046
:1034A00018F1040001F045F818F1180001F041F896
:1034B000C8F81080D6F12000C8F81800C8F8248099
:1034C0000020C8F850000020C8F85400002088F8F8
:1034D0005800049A0399484601F06CF8C8F80000B7
:1034E000002F01D0C7F8008005B0BDE8F08F10B5FF
:1034F000040001F0C6F8DFF8A4040068401CDFF8FF
:103500009C140860DFF89804006800280AD1DFF8EE
:1035100090040460DFF884040068012811D100F0F1
:10352000CCFB0EE0DFF87C040068002809D1E06ADB
:10353000DFF86C140968C96A884202D3DFF86004B6
:103540000460DFF864040068401CDFF85C14086065
:10355000DFF8540400682064DFF85004006801219B
:10356000E26A91400843DFF844140860211DDFF847
:103570004004E26A142303FB020000F0DDFF01F0C7
:103580009CF8DFF82004006800280FD0DFF8100452
:103590000068C06AE16A884208D25FF08050DFF8B4
:1035A00058160860BFF34F8FBFF36F8F10BD38B54B
:1035B000040001F066F8002C03D1DFF8E40305688D
:1035C00000E02500281D00F0E0FF002812D1DFF800
:1035D000E003E96A142202FB01000068002809D117
:1035E000DFF8C80300680121EA6A91408843DFF8E8
:1035F000BC130860A86A002803D015F1180000F079
:10360000C4FFDFF8A4030068401CDFF89C130860C7
:10361000DFF88C03006885420CD1291DDFF8C00457
:1036200000F08AFFDFF8BC040068401CDFF8B41427
:1036300008600BE0DFF864030068401EDFF85C13ED
:103640000860280000F09AFB00F0A1FB01F035F8BB
:10365000DFF85003006800281AD0DFF84403006840
:10366000854215D1DFF880040068002807D040F2B9
:103670006542DFF8EC11DFF8B40400F039FF5FF0C9
:103680008050DFF874150860BFF34F8FBFF36F8F62
:1036900031BD38B504000025002C15D0DFF84804F2
:1036A0000068002807D040F2CF42DFF8B411DFF8FD
:1036B0007C0400F01DFF00F04DF80021200000F018
:1036C00043FD00F04FF80500002D08D15FF0805059
:1036D000DFF8A4160860BFF34F8FBFF36F8F31BDC3
:1036E0001CB5DFF8A8070190002000900023782285
:1036F000DFF89C170FF29950FFF746FE0400012CEB
:1037000002D101F053F80400012C18D1502080F3AD
:103710001188BFF34F8FBFF36F8F5FF0FF30DFF87B
:10372000741708600120DFF87C1208600020DFF8C1
:103730000014086001F00EFB00F05FFF09E014F1D7
:10374000010F06D140F284724549DFF8E00300F032
:10375000CFFE13BDDFF890030068401CDFF888132C
:103760000860704770B500240025DFF87C0300680E
:10377000002806D14FF4FD623949DFF8B00300F0AC
:10378000B7FE00F07EFFDFF860030068401EDFF840
:1037900058130860DFF850030068002857D17F48AD
:1037A0000068002853D0DFF8A8070068002826D05A
:1037B000DFF89C07C068C068040014F1180000F02E
:1037C000E4FE201D00F0E1FE784800680121E26A75
:1037D0009140084375490860211D7548E26A142329
:1037E00003FB020000F0A8FEE06A6D490968C96A9F
:1037F0008842D8D30120DFF880170860D3E7002C77
:1038000001D000F0C4FADFF84C070668002E0ED095
:1038100000F028F8002803D00120DFF85C170860CA
:10382000761E002EF4D10020DFF828170860DFF89C
:103830004807006800280AD0012005005FF080508A
:10384000DFF834150860BFF34F8FBFF36F8F00F0C0
:1038500034FF280070BDDFF8D812096808007047EF
:103860009C8700082DE9F04100269F480068002849
:1038700040F08180AE480068471CAD480760002FCB
:1038800023D1DFF8400300680068002806D040F626
:10389000D912DFF8E816A54800F02AFEDFF8240365
:1038A00000688046DFF820030068DFF8181308601E
:1038B000DFF81403C0F80080DFF8C4060068401C7D
:1038C000DFF8BC16086000F062FADFF8C80500688F
:1038D00087423CD3DFF8EC0200680068002805D17D
:1038E0005FF0FF30DFF8AC15086030E0DFF8D4029D
:1038F0000068C068C068040060680500AF4203D279
:10390000DFF89005056022E0201D00F03EFEA06A71
:10391000002803D014F1180000F037FE2348006897
:103920000121E26A9140084320490860211D204896
:10393000E26A142303FB020000F0FEFDE06A18496E
:103940000968C96A8842C5D301200600C2E7184841
:1039500013490968C96A142202FB010000680228A1
:1039600001D301200600DFF8EC05006800280BD128
:1039700001F051FA08E0DFF8DC050068401CDFF8D0
:10398000D415086001F047FADFF8EC05006800285C
:1039900001D0012006003000BDE8F081243800206D
:1039A0001438002030380020403800202C38002007
:1039B000AC31002038B54C480068002804D0012004
:1039C000DFF8B415086070E00020DFF8AC1508607F
:1039D000DFF85426D2E90001DFF850160860DFF85E
:1039E00050060068DFF84416096888420CD2DFF8F8
:1039F0004C070068016DDFF8342612685118DFF8B3
:103A000030261268891A0165DFF820060068DFF8A1
:103A100020160860DFF824070068006B05005FF0DF
:103A2000A53004002868A04208D16868A04205D1EA
:103A3000A868A04202D1E868A04209D0DFF8FC06DD
:103A4000006810F13401DFF8F406006801F0DBF9DA
:103A5000DFF8E0060068B0FA80F0D0F11F00040043
:103A6000DFF8D406142101FB04000068002806D109
:103A700040F6F622DFF804152C4800F039FDDFF897
:103A8000B816142202FB041108004168496841601D
:103A9000416810F10802914202D1416849684160D1
:103AA0004068C068DFF89416086031BD38B504007E
:103AB0000D00002C06D140F60632DFF8C0141B487A
:103AC00000F016FDDFF87406006810F11801200000
:103AD00000F03EFD0121280000F036FB31BD000062
:103AE00088370020203800204C38002070B50400B2
:103AF0000D001600002C06D140F63132DFF87C14A0
:103B00000A4800F0F5FCDFF83406006810F11801EF
:103B1000200000F011FD002E02D05FF0FF30050004
:103B20003100280000F010FB70BD00009C8C0008E4
:103B30002838002070B50400E068C0680500002D3A
:103B400007D140F66132DFF83414DFF8F40500F0F5
:103B5000CFFC15F1180000F018FDDFF8E80500684B
:103B6000002816D1281D00F010FDDFF8C8050068F8
:103B70000121EA6A91400843DFF8B8150860291D61
:103B8000DFF8B405EA6A142303FB020000F0D4FC5A
:103B900005E015F11801DFF8B80300F0CDFCDFF8FF
:103BA0009C050068C06AE96A884206D201200600C6
:103BB0000120DFF88014086001E0002006003000DA
:103BC00070BD0000183800201C38002010B504001B
:103BD000002C07D140F6C132DFF8A013DFF86005F2
:103BE00000F086FCDFF8980300682060DFF8DC0551
:103BF0000068606010BD000004ED00E0F8B504004E
:103C00000D00002C07D140F6CB32DFF87013DFF83F
:103C1000300500F06DFC002D07D140F6CC32DFF806
:103C20005C13DFF81C0500F063FC00F02AFDDFF8F0
:103C30009C050768286810F1010F02D100200600DA
:103C40001DE0DFF83C0300682168884205D0606809
:103C5000874202D30120060011E06068381A296803
:103C600088420AD22868C01B6168081828602000B2
:103C7000FFF7ACFF0020060001E00120060000F085
:103C80001CFD3000F2BD0120DFF8A813086070476A
:103C900010B5040000F03DF8DFF89C04006802282D
:103CA00008D35FF08050DFF828150860BFF34F8F0E
:103CB000BFF36F8F01F0A6F8ECE710B50020040009
:103CC000202C08D2DFF87004142101FB040000F05E
:103CD00021FC641CF4E7DFF8FC0400F01BFCDFF8B7
:103CE000F80400F017FC9A4800F014FCDFF8EC042C
:103CF00000F010FCDFF8E80400F00CFCDFF8D4045E
:103D0000DFF8E0140860DFF8D004DFF8DC140860A6
:103D100010BD38B5DFF8D404006800282BD0FFF7B9
:103D200019FDDFF8B8040068002801D1012400E083
:103D30000024FFF717FD002CECD100F0A2FCDFF807
:103D40009C04C068C0680500281D00F01EFCDFF858
:103D5000A0040068401EDFF898140860DFF88C04A7
:103D60000068401EDFF88414086000F0A6FC2800FC
:103D700000F004F8CEE731BD04ED00E010B504001A
:103D8000206B00F0CEFA200000F0CBFA10BDDFF877
:103D9000541409680968002904D15FF0FF313D4AD5
:103DA000116008E0DFF83C140968C968C9680800B8
:103DB0004168384A11607047DFF83C1409680029EF
:103DC00002D10121080009E0DFF830140968002958
:103DD00002D10221080001E000210800704738B537
:103DE00004002500002C4FD0E86ADFF808140968A9
:103DF000C96A884248D2A869002806D4DFF8F403CB
:103E00000068C06AD0F12000A8616869DFF8281353
:103E1000EA6A142303FB0211884230D1281D00F006
:103E2000B4FB002812D1DFF81003E96A142202FB68
:103E300001000068002809D1DFF8F80200680121BC
:103E4000EA6A91408843DFF8EC120860DFF8A403C7
:103E50000068C06AE862DFF8DC0200680121EA6AF3
:103E600091400843DFF8CC120860291DDFF8C80232
:103E7000EA6A142303FB020000F05EFB04E0DFF8B3
:103E800074030068C06AE86231BD00004838002051
:103E90009C8E00084438002070B5040025000026E0
:103EA000002C52D0DFF894020068854206D040F61C
:103EB000C7623249DFF8880200F01AFBE86C00287C
:103EC00006D140F6C9622D49DFF8740200F010FBFC
:103ED000E86C401EE864E86AA96C884235D0E86C5A
:103EE000002832D1281D00F050FB002812D1DFF845
:103EF0001003E96A142202FB01000068002809D1BE
:103F0000DFF8300200680121EA6A91408843DFF857
:103F100024120860A86CE862E86AD0F12000A86169
:103F2000DFF8100200680121EA6A91400843DFF8D7
:103F300004120860291DDFF8C802EA6A142303FB93
:103F4000020000F0F9FA01200600300070BD000008
:103F50007437002034380020DFF898020068002809
:103F600005D0DFF890020068C16C491CC164DFF81D
:103F70008402006870470000383800209C870008E1
:103F80003C3800202DE9F04104000D0016001F0010
:103F900000F077FBDFF85C02006890F85800022818
:103FA0001AD0DFF850020068416DA143416501203D
:103FB000DFF84012096881F85800002F0CD0012169
:103FC000380000F0C1F85FF08050DFF8041208609C
:103FD000BFF34F8FBFF36F8F00F06FFB00F051FB0B
:103FE000002E04D0DFF80C020068406D3060DFF86E
:103FF0000402006890F85800012802D10020804691
:1040000007E0DFF8F0010068416DA9434165012038
:1040100080460020DFF8DC11096881F8580000F0C4
:104020004CFB4046BDE8F081E837002054380020C2
:1040300050380020383800202DE9F04704000D00EA
:1040400016001F005FF00109002C06D141F2FD02AD
:10405000DFF8B0113A4800F04BFAA04600F011FB2F
:10406000002F02D0D8F85400386098F858008246E3
:10407000022088F85800F6B2002E20D0022E0AD076
:1040800003D3042E10D00CD319E0D8F854002843E1
:10409000C8F8540013E0D8F85400401CC8F8540085
:1040A0000DE0C8F854500AE05FFA8AFABAF1020F3C
:1040B00002D0C8F8545001E000208146FFE75FFAC3
:1040C0008AFABAF1010F2FD118F1040000F05DFA5D
:1040D000184800680121D8F82C2091400843154960
:1040E000086018F104011448D8F82C20142303FBAD
:1040F000020000F021FAD8F82800002805D041F28B
:10410000351240490E4800F0F3F90C480068C06AC7
:10411000D8F82C10884207D25FF080502C490860F4
:10412000BFF34F8FBFF36F8F00F0C7FA4846BDE86B
:10413000F08700002C380020AC310020143800201B
:104140009C8C00084C380020F8B504000D001F4876
:10415000076828480068001D00F017FA00280BD1F6
:1041600024480068284909680122C06A12FA00F050
:1041700031EA00002449086014F1010F08D1002D34
:1041800006D01C480068011D154800F0D5F91BE059
:10419000E0190600174800684660BE4207D215487D
:1041A0000068011D1048006800F0D2F90CE01148C9
:1041B0000068011D0B48006800F0CAF91348006848
:1041C000864201D211480660F1BD00002838002067
:1041D00004ED00E04C3700206037002088370020D5
:1041E0009C370020183800201C3800202038002080
:1041F0002438002014380020303800204C380020AB
:10420000AC3100209C8700082C3800204438002066
:104210002DE9F04104005FF00008FFF79BFA914898
:104220000068002801D100F0B4F88F48006804420B
:1042300063D1002C12D08D480068041914F0070FC8
:104240000CD014F1080014F00701441A14F0070F01
:1042500004D0BF228649874800F04AF9002C4CD090
:1042600085480068A04248D3844806008348006817
:1042700005006868A04205D22868002802D02E00F8
:104280002D68F6E777480068854236D03068774970
:104290000968081880462868306074480068400043
:1042A0006968091B884211D26019070017F00700DE
:1042B000002804D0EC226E496E4800F019F96868B5
:1042C000001B78606C60380000F09AF86A4800685B
:1042D0006968401A68490860674800686849096861
:1042E000884203D2644800686549086068685E498E
:1042F00009680843686000202860FFF733FAB8F1C6
:10430000000F01D100F076FD18F00700002805D05D
:104310004FF496725649574800F0EAF84046BDE817
:10432000F08170B504002600002C31D04F480068A1
:10433000361A350068684C490968084205D14FF4BF
:10434000A0724B494B4800F0D3F82868002805D0EC
:1043500040F241124649474800F0CAF868684249AD
:104360000968084214D02868002811D168683E49BD
:10437000096888436860FFF7EDF93F48006869689D
:1043800008183D490860280000F03AF8FFF7EAF9FC
:1043900070BD30B44FF440533A4C220012F0070F76
:1043A00005D0D21DD208D2009B1A364CE31811005A
:1043B000324C21600024314D6C605C1822002B4C83
:1043C0002468121BD208D200264C22600024254DFE
:1043D0002D686C600024234D2D682C600800141A91
:1043E0004460204C246804604468254D2C60446877
:1043F000214D2C605FF000441B4D2C6030BC704799
:1044000010B41E4B1A001368834201D21268FAE7F7
:10441000110053685B18834204D153684468E31861
:1044200053601000010043685B181468A34211D167
:1044300013680C4C2468A34208D04368146864686D
:10444000E318436013681B68036005E0054B1B68B5
:10445000036001E013680360824200D0106010BC6A
:1044600070470000E0370020F8370020FC8E00087D
:10447000FC8500085C8C0008F0370020D83700204D
:10448000F4370020AC01002062F30F2262F31F42D8
:10449000401810F0030308D0C91A1FD3DB0748BF28
:1044A00000F8012D28BF20F8022D130030B4144667
:1044B0001546103928BF20E93C00FAD8490728BF23
:1044C00020E90C0048BF40F8042D890028BF20F8DF
:1044D000022D48BF00F8012D30BC7047C91818BF25
:1044E00000F8012DCB0728BF00F8012D7047000010
:1044F0000EB400B582B003A90091024600AB0121C1
:10450000034878440A30FDF7A1F806BC5DF810FBBB
:104510002546000010F1080141605FF0FF31816025
:1045200010F10801C16010F1080101610021016072
:10453000704700210161704742684A6093688B6050
:10454000936859609160086103685B1C0360704761
:1045500010B40B6813F1010F02D10469220008E0C6
:1045600010F10804220054682468A34201D3526861
:10457000F9E754684C604C68A1608A60516008613A
:104580000468641C046010BC7047010008698A68F4
:104590004B689A604A688B685A6042688A4201D1C7
:1045A0008A68426000220A610268521E0260006846
:1045B00070470000001F5FF080730360001F4B080E
:1045C0005B000360001F0FF20D03036014380260EC
:1045D0002038704780B56848006810F1010F04D09A
:1045E000EE2266496648FFF783FF502080F311886A
:1045F000BFF34F8FBFF36F8FFEE700B583B0614805
:1046000001780191FF21017001788DF800109DF86B
:10461000001011F050015C4A117007215B4A1160D3
:104620009DF8001009060AD558490968491E574ADD
:1046300011609DF8001049008DF80010F0E7534913
:1046400009680902514A11605049096811F4E06192
:104650004E4A1160019901704D48006850F4700095
:104660004B4908604A48006850F07040484908606B
:1046700000F04FF800204049086000F02AFC0020BC
:104680000EBD80B5502080F31188BFF34F8FBFF36C
:104690006F8F39480068401C374908603648006809
:1046A000012809D13B480068000605D04FF4A672E6
:1046B00032493348FFF71CFF01BD80B52E48006822
:1046C000002805D140F253122C492D48FFF710FF66
:1046D00029480068401E28490860274800680028CB
:1046E00002D1002080F3118801BD80B5502080F3F5
:1046F0001188BFF34F8FBFF36F8FFFF7B3F8002818
:1047000003D05FF0805023490860002080F31188B7
:1047100001BD214800684FF47A71B0FBF1F0401EF2
:104720001E49086007201E4908607047000000000D
:1047300038B5EFF305800400102C0ED3194800683B
:10474000205C050010480078EDB2854205D240F2A9
:1047500047220A490A48FFF7CBFE0C480068124975
:10476000096811F4E061884205D240F257220349FA
:104770000348FFF7BDFE31BD9001002040860008D0
:104780006C8C000800E400E094380020043800201D
:1047900020ED00E004ED00E09801002014E000E0CE
:1047A00010E000E0048F00080CED00E01CB50024D0
:1047B00000F0F2F9DFF82C04006800280DD0DFF8D3
:1047C000280401901F2000900023F022DFF81C1421
:1047D0000FF20510FEF7D8FD0400002C07D140F2BF
:1047E0003312DFF80C14DFF80C04FFF781FE200011
:1047F00016BD2DE9F04385B004000D0016001F0022
:10480000DDF830805FF00009002C07D14FF4D3723F
:10481000DFF8DC13DFF8DC03FFF76AFEDFF8C40320
:104820000068002825D0009501960294062D17DA1D
:10483000FFF7C2FA022809D10023424600A9DFF897
:10484000A403006800F0EAFB814612E00023002286
:1048500000A9DFF89003006800F0E0FB814608E063
:1048600000233A0000A9DFF87C03006800F0C4FCD4
:104870008146484605B0BDE8F083F8B504000D0058
:10488000DFF874030068C068C768381DFFF77DFE55
:10489000F86901281BD123002A00B86901193800E2
:1048A00000F091F8002812D0002000900023220090
:1048B00000213800FFF79DFF0600002E07D14FF4BE
:1048C0000272DFF82C13DFF82C03FFF711FE38001B
:1048D000796A8847F1BD000038B5040000A800F0EF
:1048E00043F805000099280000F003F800F093F861
:1048F000F4E770B582B004000E00FEF72BFF00A8AD
:1049000000F04BF80500009800282AD1002E08D1AD
:10491000A54206D3FEF726FF29002000FFF7ADFFD2
:1049200021E0002E08D0DFF8D402006800680028DB
:1049300001D1012600E000263200611BDFF8A4024D
:10494000006800F015FFFEF70DFF00280BD15FF0A7
:104950008050DFF8AC120860BFF34F8FBFF36F8F4A
:1049600001E0FEF7FFFE73BD0100DFF88C22126844
:104970001268002A01D1012200E00022D2B20A60AE
:104980000A68002A06D1DFF870221268D26812681D
:10499000100001E000221000704738B50400FEF757
:1049A0005AFF0500DFF85C020068854204D200F07F
:1049B000ADF80120206001E000202060DFF8440213
:1049C0000560280032BD2DE9F04104000D001600FD
:1049D0001F005FF0000865602461AE420CD3F01B3D
:1049E000A169884202D30120804611E0211D83483D
:1049F0000068FFF7ADFD0BE0BE4204D2BD4202D31A
:104A00000120804604E0211D7B480068FFF7A0FDDF
:104A10004046BDE8F081F0B587B00023002201A92F
:104A20007048006800F06EFC00286DD001980028E6
:104A30000CD502AF002F05D140F2E7226C496D483A
:104A4000FFF756FDB96878683A68904701980028E2
:104A5000E3D4039804006069002802D0201DFFF70A
:104A600094FD05A8FFF799FF0600019800280ED0D5
:104A700002280CD00BD304282ED02CD3062806D025
:104A80003DD3082827D002D3092825D03BE0029B3C
:104A900032000298A16909182000FFF794FF00284E
:104AA00018D02000616A8847E069012812D10020EF
:104AB000009000230298A1690A1800212000FFF746
:104AC00098FE0500002D05D140F2213248494948A1
:104AD000FFF70EFDA1E7A0E70298A061A0690028FA
:104AE00005D14FF44E7242494248FFF701FD3300B1
:104AF0003200A06981192000FFF765FF8DE72000D3
:104B0000FFF70FFC89E788E707B0F0BD2DE9F0411A
:104B100082B0394800680068002832D03648006802
:104B2000C0680068040034480068C068C0680700B6
:104B3000381DFFF72AFD3800796A8847F86901288F
:104B4000E7D1B86900190500AC4207D27D603F612A
:104B5000391D29480068FFF7FBFCDAE700200090C8
:104B60000023220000213800FFF743FE8046B8F101
:104B7000000F05D140F292321D491E48FFF7B8FCE4
:104B8000C7E71D48006806001C4800681A4908600D
:104B90001A480660BDE8F38180B5FFF772FD114841
:104BA000006800281BD11848FFF7B4FC1748FFF72E
:104BB000B1FC1548104908601448104908600022EB
:104BC0001021052000F0E0F906490860054800685A
:104BD000002804D00E490348006800F0AEFDFFF73E
:104BE0006CFD01BD6038002064380020A48E0008F0
:104BF00038870008AC8C0008583800205C3800204A
:104C000004ED00E068380020B0370020C4370020F1
:104C1000AC8E000800B583B000F042F8002001908F
:104C2000002000900023782286490FF21100FEF741
:104C3000ABFBFEF755FD00200EBD00001CB50400C7
:104C400000F077F800F0FAFD5FF4E13000F020FEAC
:104C500000F006FF7C48019003200090002378229A
:104C60007A497B48FEF790FB0020019002200090DB
:104C70000023782277497848FEF786FB01F0DAF8BE
:104C80000121012000F0E2FD6420FEF702FD002179
:104C9000012000F0DBFD4FF46170FEF7FAFCEDE758
:104CA00010B501F0D7F801F0D5F85FF4803001F0CD
:104CB00001F901F02AF90400E4B2012C28D1002006
:104CC00001F065F9002001F076F94FF4806001F001
:104CD00068F94FF4004001F079F9022001F058FA28
:104CE000102001F061FA5FF480115FF4803001F070
:104CF0002CF9012001F037F9392001F000FA0028E1
:104D0000FAD0022001F034F901F03CF90828FBD177
:104D1000042001F096FA01217D2001F0D2F9012151
:104D20004FF4804001F0DCF94FF4407001F04EFA8E
:104D300010BD80B545F2555001F070F8042001F027
:104D400071F840F2E24001F071F801F073F801F0FF
:104D500076F801BD80B500200021404AC2E900017B
:104D60004721312000F001F801BD30B585B00400C5
:104D70000D000121022001F0B3F9ADF80840ADF8B3
:104D800004500020ADF80A000020ADF8060001A98B
:104D9000334801F073FA01220121314801F0C6FACB
:104DA0001D208DF8000001208DF8010000208DF8F5
:104DB000020001208DF8030000A801F00CFA012187
:104DC000274801F0A5FA05B030BD80B5012124487F
:104DD00001F0B7FA012808D12048D0E90023501C7F
:104DE00053F100011D4AC2E9000101211C4801F0F4
:104DF000C1FA01BD502080F31188BFF34F8FBFF37C
:104E00006F8FFEE77047502282F31188BFF34F8FF8
:104E1000BFF36F8FFEE713480068401C114908601C
:104E20004FF47A700F4909680E4A126892FBF0F24B
:104E300000FB1210002804D10B480068401C0A49EE
:104E400008607047DC8D00088C380020E88D000871
:104E50005D750008F48D0008D3700008E837002065
:104E600000040040FC37002000380020EFF30980E8
:104E7000BFF36F8F1D4B1A6820E9F00F106008B563
:104E80004FF0500080F31188BFF34F8FBFF36F8F47
:104E9000FEF790FD4FF0000080F31188BDE8084058
:104EA00019680868B0E8F00F80F30988BFF36F8FC6
:104EB00070470E4B19680868B0E8F00F80F3098856
:104EC000BFF36F8F4FF0000080F311884EF00D0E8E
:104ED000704707480068006880F3088862B661B6CA
:104EE000BFF34F8FBFF36F8F00DF00001438002037
:104EF00008ED00E070B504000D002600002E07D17B
:104F000040F21B12DFF85C18DFF85C08FFF7F0FADC
:104F1000FFF7B7FB3068F16B326C02FB0100706089
:104F20000020B0633068B0603068F16B491E326CAD
:104F300002FB0100F0605FF0FF3086F844005FF094
:104F4000FF3086F84500002D12D13069002817D0B7
:104F500016F11000FEF7EEFD002811D05FF0805032
:104F6000DFF808180860BFF34F8FBFF36F8F07E0BB
:104F700016F11000FFF7CEFA16F12400FFF7CAFA77
:104F8000FFF79BFB012070BD2DE9F84304000D00E5
:104F90001600002C07D14FF4C472DFF8C817DFF8F1
:104FA000C807FFF7A5FA002D02D10020804602E0D5
:104FB00005FB04F0804618F15400FFF729F90700BB
:104FC000002F0AD017F15400814600973300DBB25E
:104FD0004A462900200000F003F83800BDE8F283BB
:104FE0002DE9F04104000D0016001F00DDF81880C7
:104FF000002D02D1C8F8008001E0C8F80060C8F8B0
:105000003C40C8F8405001214046FFF773FF88F844
:1050100050700020C8F84800BDE8F0812DE9F74342
:1050200004000D001E005FF00008A146B9F1000F5A
:1050300007D140F2D922DFF82C17DFF82C07FFF751
:1050400057FA002D03D1D9F84000002801D10120E2
:1050500000E00020C0B2002807D140F2DA22DFF8D9
:105060000417DFF80407FFF743FA022E03D1D9F83B
:105070003C00012801D1012000E00020C0B200283E
:1050800007D140F2DB22DFF8DC16DFF8DC06FFF7A1
:105090002FFAFEF791FE002802D10298002801D1D4
:1050A000012000E00020C0B2002807D140F2DE223B
:1050B000DFF8B016DFF8B006FFF71AFAFFF7E1FAEB
:1050C000D9F83800D9F83C10884201D3022E3CD1DF
:1050D00032002900484600F065FA0700D9F8480078
:1050E00000280FD03100484600F068FB002828D087
:1050F0005FF08050DFF874160860BFF34F8FBFF386
:105100006F8F1EE0D9F8240000280FD019F1240079
:10511000FEF710FD002814D05FF08050DFF84C1629
:105120000860BFF34F8FBFF36F8F0AE0002F08D0E6
:105130005FF08050DFF834160860BFF34F8FBFF385
:105140006F8FFFF7BAFA012054E00298002803D1CC
:10515000FFF7B3FA00204DE0B8F1000F04D100A82A
:10516000FEF734FD01208046FFF7A7FAFEF7F2FABA
:10517000FFF787FA99F9440010F1010F02D10020DE
:1051800089F8440099F9450010F1010F02D100207F
:1051900089F84500FFF791FA02A900A8FEF72EFD55
:1051A000002821D1484600F0B7FA002816D002990D
:1051B00019F11000FEF77AFC484600F058FAFEF7A5
:1051C000D1FA00287FF47AAF5FF08050DFF89C15A9
:1051D0000860BFF34F8FBFF36F8F6FE7484600F053
:1051E00046FAFEF7BFFA69E7484600F040FAFEF7D4
:1051F000B9FA0020BDE8FE832DE9F84F04000D0048
:1052000016001F00A246BAF1000F07D140F29F32EC
:10521000DFF85015DFF85005FFF76AF9002D03D1CC
:10522000DAF84000002801D1012000E00020C0B2DF
:10523000002807D14FF46872DFF82815DFF8280539
:10524000FFF756F9022F03D1DAF83C00012801D10B
:10525000012000E00020C0B2002807D140F2A132B6
:10526000DFF80015DFF80005FFF742F9FFF760FAF5
:10527000EFF311808146502080F31188BFF34F8FE8
:10528000BFF36F8FDAF83800DAF83C10884201D3A8
:10529000022F30D19AF945B03A002900504600F06B
:1052A00081F94FFA8BFB1BF1010F1DD1DAF8480091
:1052B00000280AD03900504600F080FA002817D0A4
:1052C000002E15D00120306012E0DAF8240000280A
:1052D0000ED01AF12400FEF72DFC002808D0002E75
:1052E00006D00120306003E01BF101008AF8450080
:1052F0000120804601E00020804689F31188404665
:10530000BDE8F28F2DE9F44783B004000D001E00C4
:105310000027A146B9F1000F07D140F2DC42DFF8C7
:105320004414DFF84404FFF7E3F8002D03D1D9F863
:105330004000002801D1012000E00020C0B2002878
:1053400007D140F2DD42DFF81C14DFF81C04FFF740
:10535000CFF8FEF731FD002802D10398002801D1D3
:10536000012000E00020C0B2002807D14FF49C6269
:10537000DFF8F013DFF8F003FFF7BAF8FFF781F971
:10538000D9F838A0BAF1000F41D0D9F80C00804606
:105390002900484600F053F9002E1FD1BAF1010050
:1053A000C9F83800D9F80000002803D1FEF7D4FD71
:1053B000C9F80400D9F81000002824D019F1100011
:1053C000FEF7B8FB00281ED05FF08050DFF89C137A
:1053D0000860BFF34F8FBFF36F8F14E0C9F80C80E4
:1053E000D9F8240000280ED019F12400FEF7A2FB02
:1053F000002808D05FF08050DFF870130860BFF31A
:105400004F8FBFF36F8FFFF758F9012065E00398C6
:10541000002803D1FFF751F900205EE0002F04D1EE
:1054200000A8FEF7D3FB01200700FFF746F9FEF7BF
:1054300091F9FFF726F999F9440010F1010F02D113
:10544000002089F8440099F9450010F1010F02D1BC
:10545000002089F84500FFF730F903A900A8FEF7FE
:10546000CDFB00282DD1484600F046F9002822D077
:10547000D9F80000002807D1FFF703F9D9F8040094
:10548000FEF7ADFCFFF719F9039919F12400FEF7B7
:105490000DFB484600F0EBF8FEF764F900287FF4B6
:1054A0006DAF5FF08050DFF8C4120860BFF34F8F1C
:1054B000BFF36F8F62E7484600F0D9F8FEF752F964
:1054C0005CE7484600F0D3F8FEF74CF9484600F098
:1054D00013F900283FF452AF002004B0BDE8F08774
:1054E0002DE9F84F04000D001600A146B9F1000F98
:1054F00007D14FF4B462DFF86C12DFF86C02FEF7EC
:10550000F7FF002D03D1D9F84000002801D1012078
:1055100000E00020C0B2002807D140F2A152DFF81D
:105520004412DFF84402FEF7E3FFFFF701F9EFF35F
:1055300011808046502080F31188BFF34F8FBFF356
:105540006F8FD9F838A0BAF1000F24D099F944B080
:105550002900484600F073F8BAF10100C9F8380094
:105560004FFA8BFB1BF1010F0ED1D9F81000002868
:105570000ED019F11000FEF7DDFA002808D0002E39
:1055800006D00120306003E01BF1010089F84400DF
:105590000120070001E00020070088F3118838008F
:1055A000BDE8F28F2DE9F04704000D00160000273A
:1055B000A06B8046206C002809D12068002838D1D3
:1055C0006068FEF769FC07000020606031E0002E93
:1055D00013D1D4F84090D4F808A04A462900504688
:1055E000FDF756F9A068216C0818A060A0686168F2
:1055F00088421ED32068A0601BE0D4F84090D4F805
:105600000CA04A4629005046FDF742F9E068216C9B
:10561000401AE060E0682168884203D26068216C2B
:10562000401AE060022E04D1B8F1000F01D0B8F1A9
:10563000010818F10100A0633800BDE8F087F8B553
:1056400004000D00206C002810D0E068216C0818C0
:10565000E060E0686168884201D32068E060266C01
:10566000E768320039002800FDF712F9F1BD70B586
:105670000400FFF706F894F945506DB2012D1ADBCE
:10568000A06C002808D00021200000F097F8002826
:105690000FD0FEF7F8FA0CE0606A002808D014F189
:1056A0002400FEF747FA002803D0FEF7ECFA00E0EA
:1056B00001E06D1EE1E75FF0FF3084F84500FEF782
:1056C000FCFFFEF7DEFF94F9446076B2012E0CDB9E
:1056D0002069002809D014F11000FEF72BFA0028E9
:1056E00001D0FEF7D0FA761EEFE75FF0FF3084F8C6
:1056F0004400FEF7E2FF70BD38B50400FEF7C1FFBD
:10570000A06B002802D10120050001E00020050067
:10571000FEF7D3FF280032BD38B50400FEF7B1FF15
:10572000A06BE16B884202D10120050001E000205E
:105730000500FEF7C2FF280032BD00231A00082A28
:105740000ED23B4B53F83230002B07D1384B43F885
:105750003210374B13EBC203586001E0521CEEE7E6
:10576000704700006C8700087C8C000804ED00E0A6
:10577000F8B504000D0016002700FEF782FF97F928
:10578000440010F1010F02D1002087F8440097F97E
:10579000450010F1010F02D1002087F84500FEF707
:1057A0008CFFB86B002805D13200290017F12400C6
:1057B000FEF79CF93800FFF75AFFF1BDF1B50C0078
:1057C0000098856C0026002D05D140F6CE121949AF
:1057D0001948FEF78DFEA86BE96B884205D340F6A9
:1057E000CF1214491448FEF783FEA86BE96B884278
:1057F0001AD295F94570220000A92800FFF7D2FEC1
:1058000006007FB217F1010F0BD1686A00280BD098
:1058100015F12400FEF78EF9002805D001200600BE
:1058200002E0781C85F845003000F2BD0000000061
:10583000B83600206C8700087C8C000880B50020FA
:1058400000F0B0FD012000F0ADFD01BD38B5040051
:105850000D00042C0AD2012D04D10C48205C00F06C
:10586000C2FD03E00948205C00F0C9FD31BD10B560
:105870000400042C07D2FEF704FF0448205C00F06B
:10588000CAFDFEF71AFF10BD00000000008F0008DF
:105890001FB5040000940020ADF804000020ADF80E
:1058A00006000020ADF808000020ADF80C000C2028
:1058B000ADF80A0000A9022000F0C0FD012240F26C
:1058C0002551644800F0A6FE1FBD70B504000D0010
:1058D00016000023320029005B480068FFF712FD24
:1058E000002801D0012000E0002070BD2DE9F0412A
:1058F00004000D0016000027A84632004146200093
:10590000FFF7E3FF012801D038000EE018F101088D
:105910007F1C0A2241462000FFF7D7FF012803D150
:1059200018F101087F1CF4E73800BDE8F081F8B5F4
:1059300004000D0016002F0097F90000002807D082
:105940000A2297F90010200000F017F87F1CF3E7F7
:10595000F1BDF8B504000D0016002F003000461E02
:1059600080B2002808D00A2297F9001049B220001E
:1059700000F003F87F1CF1E7F1BD73B504001500DA
:1059800000232A0001A931480068FFF747FB0128DE
:1059900008D101200600012240F227712C4800F0B6
:1059A00039FE01E000200600300076BD80B540F2EF
:1059B0002771274800F070FE012814D1264A00A95B
:1059C00022480068FFF78CFD012806D19DF80010E1
:1059D00089B21F4800F049FE05E0002240F227711D
:1059E0001B4800F017FE40F22551194800F054FE04
:1059F00001280BD1164800F03CFE8DF80000002372
:105A0000154A00A910480068FFF7F6FB1248006825
:105A1000002807D05FF0805010490860BFF34F8F17
:105A2000BFF36F8F01BD38B504000D002100C9B26E
:105A300089B2084800F019FE8021064800F01DFEDA
:105A40000028F9D0200032BD083800200C38002092
:105A500000380140004800401038002004ED00E00C
:105A600080B50121082000F02CFBC020ADF800001B
:105A700003208DF8020014208DF8030000A9A3482C
:105A800000F042FE01BD000064200100481EC9B2C2
:105A9000002901D000BFF8E7704780B50121082038
:105AA00000F00FFB8020ADF8000010208DF80300FF
:105AB00003208DF8020000A9944800F025FE802004
:105AC00093490860402092490860FFF7DDFF914844
:105AD0000068002801D1012000E0002080208E49CC
